{
  "contractName": "MyOgr",
  "abi": [
    {
      "inputs": [],
      "payable": false,
      "stateMutability": "nonpayable",
      "type": "constructor"
    },
    {
      "constant": true,
      "inputs": [
        {
          "internalType": "address",
          "name": "_adr",
          "type": "address"
        }
      ],
      "name": "isRegestered",
      "outputs": [
        {
          "internalType": "bool",
          "name": "",
          "type": "bool"
        }
      ],
      "payable": false,
      "stateMutability": "view",
      "type": "function"
    },
    {
      "constant": false,
      "inputs": [
        {
          "internalType": "string",
          "name": "_mail",
          "type": "string"
        }
      ],
      "name": "ogrAdd",
      "outputs": [],
      "payable": false,
      "stateMutability": "nonpayable",
      "type": "function"
    },
    {
      "constant": true,
      "inputs": [
        {
          "internalType": "uint256",
          "name": "_id",
          "type": "uint256"
        }
      ],
      "name": "getOgr",
      "outputs": [
        {
          "internalType": "string",
          "name": "",
          "type": "string"
        }
      ],
      "payable": false,
      "stateMutability": "view",
      "type": "function"
    },
    {
      "constant": true,
      "inputs": [],
      "name": "getUserCount",
      "outputs": [
        {
          "internalType": "uint256",
          "name": "",
          "type": "uint256"
        }
      ],
      "payable": false,
      "stateMutability": "view",
      "type": "function"
    },
    {
      "constant": true,
      "inputs": [],
      "name": "getActive",
      "outputs": [
        {
          "internalType": "bool",
          "name": "",
          "type": "bool"
        }
      ],
      "payable": false,
      "stateMutability": "view",
      "type": "function"
    },
    {
      "constant": false,
      "inputs": [
        {
          "internalType": "bool",
          "name": "_deger",
          "type": "bool"
        }
      ],
      "name": "setActive",
      "outputs": [],
      "payable": false,
      "stateMutability": "nonpayable",
      "type": "function"
    },
    {
      "constant": false,
      "inputs": [
        {
          "internalType": "uint256",
          "name": "_id",
          "type": "uint256"
        }
      ],
      "name": "delOgr",
      "outputs": [],
      "payable": false,
      "stateMutability": "nonpayable",
      "type": "function"
    }
  ],
  "bytecode": "0x608060405234801561001057600080fd5b5033600360006101000a81548173ffffffffffffffffffffffffffffffffffffffff021916908373ffffffffffffffffffffffffffffffffffffffff160217905550600a600181905550610b28806100696000396000f3fe608060405234801561001057600080fd5b506004361061007c5760003560e01c806363b8aca51161005b57806363b8aca5146101785780637996658514610233578063acec338a1461028f578063b5cb15f7146102bf5761007c565b80629ebb1014610081578063225d470d146100a3578063477a283a1461014a575b600080fd5b6100896102dd565b604051808215151515815260200191505060405180910390f35b6100cf600480360360208110156100b957600080fd5b81019080803590602001909291905050506102f4565b6040518080602001828103825283818151815260200191508051906020019080838360005b8381101561010f5780820151818401526020810190506100f4565b50505050905090810190601f16801561013c5780820380516001836020036101000a031916815260200191505b509250505060405180910390f35b6101766004803603602081101561016057600080fd5b810190808035906020019092919050505061040a565b005b6102316004803603602081101561018e57600080fd5b81019080803590602001906401000000008111156101ab57600080fd5b8201836020820111156101bd57600080fd5b803590602001918460018302840111640100000000831117156101df57600080fd5b91908080601f016020809104026020016040519081016040528093929190818152602001838380828437600081840152601f19601f820116905080830192505050505050509192919290505050610570565b005b6102756004803603602081101561024957600080fd5b81019080803573ffffffffffffffffffffffffffffffffffffffff169060200190929190505050610872565b604051808215151515815260200191505060405180910390f35b6102bd600480360360208110156102a557600080fd5b81019080803515159060200190929190505050610964565b005b6102c7610a44565b6040518082815260200191505060405180910390f35b6000600360149054906101000a900460ff16905090565b60606000806002600085815260200190815260200160002060009054906101000a900473ffffffffffffffffffffffffffffffffffffffff1673ffffffffffffffffffffffffffffffffffffffff1673ffffffffffffffffffffffffffffffffffffffff1681526020019081526020016000206000018054600181600116156101000203166002900480601f0160208091040260200160405190810160405280929190818152602001828054600181600116156101000203166002900480156103fe5780601f106103d3576101008083540402835291602001916103fe565b820191906000526020600020905b8154815290600101906020018083116103e157829003601f168201915b50505050509050919050565b3373ffffffffffffffffffffffffffffffffffffffff16600360009054906101000a900473ffffffffffffffffffffffffffffffffffffffff1673ffffffffffffffffffffffffffffffffffffffff16146104cd576040517f08c379a000000000000000000000000000000000000000000000000000000000815260040180806020018281038252601d8152602001807f536164656365204b6f6e7472617420536168696269205965746b696c6900000081525060200191505060405180910390fd5b60016000806002600085815260200190815260200160002060009054906101000a900473ffffffffffffffffffffffffffffffffffffffff1673ffffffffffffffffffffffffffffffffffffffff1673ffffffffffffffffffffffffffffffffffffffff16815260200190815260200160002060010160146101000a81548160ff0219169083151502179055506004600081548092919060019003919050555050565b600360149054906101000a900460ff166105f2576040517f08c379a00000000000000000000000000000000000000000000000000000000081526004018080602001828103825260138152602001807f4b6f6e7472617420416b74696620446567696c0000000000000000000000000081525060200191505060405180910390fd5b6105fb33610872565b1561066e576040517f08c379a00000000000000000000000000000000000000000000000000000000081526004018080602001828103825260128152602001807f5a6174656e204b617969746c6973696e697a000000000000000000000000000081525060200191505060405180910390fd5b600454600154116106e7576040517f08c379a000000000000000000000000000000000000000000000000000000000815260040180806020018281038252600b8152602001807f4c696d697420446f6c647500000000000000000000000000000000000000000081525060200191505060405180910390fd5b60046000815480929190600101919050555060405180608001604052808281526020013373ffffffffffffffffffffffffffffffffffffffff168152602001600015158152602001600015158152506000803373ffffffffffffffffffffffffffffffffffffffff1673ffffffffffffffffffffffffffffffffffffffff1681526020019081526020016000206000820151816000019080519060200190610790929190610a4e565b5060208201518160010160006101000a81548173ffffffffffffffffffffffffffffffffffffffff021916908373ffffffffffffffffffffffffffffffffffffffff16021790555060408201518160010160146101000a81548160ff02191690831515021790555060608201518160010160156101000a81548160ff0219169083151502179055509050503360026000600454815260200190815260200160002060006101000a81548173ffffffffffffffffffffffffffffffffffffffff021916908373ffffffffffffffffffffffffffffffffffffffff16021790555050565b60008073ffffffffffffffffffffffffffffffffffffffff166000808473ffffffffffffffffffffffffffffffffffffffff1673ffffffffffffffffffffffffffffffffffffffff16815260200190815260200160002060010160009054906101000a900473ffffffffffffffffffffffffffffffffffffffff1673ffffffffffffffffffffffffffffffffffffffff161415801561095d57506000808373ffffffffffffffffffffffffffffffffffffffff1673ffffffffffffffffffffffffffffffffffffffff16815260200190815260200160002060010160149054906101000a900460ff16155b9050919050565b3373ffffffffffffffffffffffffffffffffffffffff16600360009054906101000a900473ffffffffffffffffffffffffffffffffffffffff1673ffffffffffffffffffffffffffffffffffffffff1614610a27576040517f08c379a000000000000000000000000000000000000000000000000000000000815260040180806020018281038252601d8152602001807f536164656365204b6f6e7472617420536168696269205965746b696c6900000081525060200191505060405180910390fd5b80600360146101000a81548160ff02191690831515021790555050565b6000600454905090565b828054600181600116156101000203166002900490600052602060002090601f016020900481019282601f10610a8f57805160ff1916838001178555610abd565b82800160010185558215610abd579182015b82811115610abc578251825591602001919060010190610aa1565b5b509050610aca9190610ace565b5090565b610af091905b80821115610aec576000816000905550600101610ad4565b5090565b9056fea265627a7a7231582058679ef9cfe07db6e37a39d2b2249afd071457c9b7e298a758d94e27095fb82d64736f6c63430005100032",
  "source": "// SPDX-License-Identifier: MIT\npragma solidity >=0.4.22 <0.9.0;\n\ncontract MyOgr{\n    \n    struct ogrenci{\n        \n        string mail;\n        address adr;\n        bool deleted;\n        bool valited;\n    }\n    \n    mapping(address=>ogrenci) ogrenciler;\n    uint limit;\n    mapping(uint=>address) ogreIndex;\n    address owner;\n    bool isActive;\n    uint regesteredUsers;\n    \n    function isRegestered(address _adr) public view returns(bool){\n        \n        return(ogrenciler[_adr].adr!=address(0) && !ogrenciler[_adr].deleted);\n    }\n    \n    function ogrAdd(string memory _mail) public onlyActice{\n        \n        require(!isRegestered(msg.sender),\"Zaten Kayitlisiniz\");\n        require(limit>regesteredUsers,\"Limit Doldu\");\n        regesteredUsers++;\n        ogrenciler[msg.sender] =ogrenci(_mail,msg.sender,false,false);\n        ogreIndex[regesteredUsers]=msg.sender;\n    } \n    \n    function getOgr(uint _id) public view returns(string memory){\n        \n        return(ogrenciler[ogreIndex[_id]].mail);\n    }\n    \n    function getUserCount() public view returns(uint){\n        \n        return(regesteredUsers);\n    }\n    \n    function getActive() public view returns(bool){\n        return(isActive);\n    }\n    \n    function setActive(bool _deger) public onlyOwner {\n        isActive=_deger;\n        \n    }\n    \n    function delOgr(uint _id) public onlyOwner {\n        \n        ogrenciler[ogreIndex[_id]].deleted=true; regesteredUsers--; //admin\n        \n    } \n    \n    constructor () public{\n        owner=msg.sender;\n        limit=10;\n        \n    }\n    \n    modifier onlyOwner(){\n        \n        require(owner==msg.sender,'Sadece Kontrat Sahibi Yetkili');\n        _;\n    }\n    \n    modifier onlyActice(){\n        \n        require(isActive,\"Kontrat Aktif Degil\");\n        _;\n    }\n    \n}",
  "sourcePath": "C:/ogr_app/contracts/MyOgr.sol",
  "compiler": {
    "name": "solc",
    "version": "0.5.16+commit.9c3226ce.Emscripten.clang"
  },
  "schemaVersion": "3.3.3",
  "updatedAt": "2021-01-24T11:44:16.775Z",
  "devdoc": {
    "methods": {}
  },
  "userdoc": {
    "methods": {}
  }
}